:020000020000FC
:1000000001C03BC002E00EBF0FE50DBF0FEF0ABB02
:1000100000E001BB04E002BB03E005BF00E40BBF4E
:1000200078949927C1E09927C13019F0C03071F058
:10003000FACF80E0F4E0E0E0E80F04910BBB13D0CE
:10004000913089F383958A30A9F7EDCF8AE0F4E007
:10005000E0E0E80F04910BBB06D0913021F38395CB
:100060008031A9F7E0CF29E03EE145EE4A95F1F76E
:100070003A95E1F72A95D1F70895C13019F0C1E01A
:0A00800091E01895C0E091E018959A
:10040000C0F9A4B0999282F880988883C6A1868E9C
:00000001FF
